:020000040800F2
:1000000000280020D9160008F5150008FD15000885
:10001000051600080D16000815160008000000005F
:100020000000000000000000000000001D16000895
:1000300029160008000000003516000841160008C7
:1000400021170008211700082117000821170008B0
:1000500021170008211700082117000821170008A0
:100060002117000821170008211700082117000890
:100070002117000821170008211700082117000880
:100080002117000821170008211700082117000870
:100090002117000821170008211700082117000860
:1000A0002117000821170008211700082117000850
:1000B0002117000821170008000000002117000880
:1000C00021170008000000000000000021170008B0
:1000D000000000004D160008211700080000000075
:1000E0002117000821170008211700080000000050
:1000F0000000000000000000000000000000000000
:0C01000000000000000000005FF808F1A3
:1001100010B5054C237833B9044B13B10448AFF341
:1001200000800123237010BDC000002000000000EB
:10013000D044000808B5034B1BB103490348AFF393
:10014000008008BD00000000C4000020D04400086A
:10015000034613F8012B002AFBD1181A0138704707
:1001600081F0004102E000BF83F0004330B54FEA68
:1001700041044FEA430594EA050F08BF90EA020FD5
:100180001FBF54EA000C55EA020C7FEA645C7FEA68
:10019000655C00F0E2804FEA5454D4EB5555B8BF8B
:1001A0006D420CDD2C4480EA020281EA030382EAFC
:1001B000000083EA010180EA020281EA0303362D8E
:1001C00088BF30BD11F0004F4FEA01314FF4801C61
:1001D0004CEA113102D0404261EB410113F0004F73
:1001E0004FEA03334CEA133302D0524263EB43032A
:1001F00094EA050F00F0A780A4F10104D5F1200EC8
:100200000DDB02FA0EFC22FA05F2801841F1000122
:1002100003FA0EF2801843FA05F359410EE0A5F1F6
:1002200020050EF1200E012A03FA0EFC28BF4CF027
:10023000020C43FA05F3C01851EBE37101F00045DD
:1002400007D54FF0000EDCF1000C7EEB00006EEBEA
:100250000101B1F5801F1BD3B1F5001F0CD3490874
:100260005FEA30004FEA3C0C04F101044FEA4452CB
:1002700012F5800F80F09A80BCF1004F08BF5FEA52
:10028000500C50F1000041EB045141EA050130BD32
:100290005FEA4C0C404141EB0101013C28BFB1F544
:1002A000801FE9D291F0000F04BF01460020B1FA8F
:1002B00081F308BF2033A3F10B03B3F120020CDA62
:1002C0000C3208DD02F1140CC2F10C0201FA0CF040
:1002D00021FA02F10CE002F11402D8BFC2F1200CA5
:1002E00001FA02F120FA0CFCDCBF41EA0C0190405B
:1002F000E41AA2BF01EB0451294330BD6FEA0404A4
:100300001F3C1CDA0C340EDC04F11404C4F120028E
:1003100020FA04F001FA02F340EA030021FA04F3A0
:1003200045EA030130BDC4F10C04C4F1200220FAF7
:1003300002F001FA04F340EA0300294630BD21FA35
:1003400004F0294630BD94F0000F83F4801306BFFB
:1003500081F480110134013D4EE77FEA645C18BFEF
:100360007FEA655C29D094EA050F08BF90EA020F86
:1003700005D054EA000C04BF1946104630BD91EA7E
:10038000030F1EBF0021002030BD5FEA545C05D181
:100390004000494128BF41F0004130BD14F58004C0
:1003A0003CBF01F5801130BD01F0004545F0FE4134
:1003B00041F470014FF0000030BD7FEA645C1ABF69
:1003C000194610467FEA655C1CBF0B46024650EAA0
:1003D000013406BF52EA033591EA030F41F40021CC
:1003E00030BD00BF90F0000F04BF0021704730B552
:1003F0004FF4806404F132044FF000054FF0000127
:1004000050E700BF90F0000F04BF0021704730B5E7
:100410004FF4806404F1320410F0004548BF4042BC
:100420004FF000013EE700BF42004FEAE2014FEA11
:1004300031014FEA02701FBF12F07F4393F07F4FEC
:1004400081F06051704732F07F4208BF704793F0EF
:100450007F4F04BF41F40021704730B54FF4607402
:1004600001F0004521F000411CE700BF50EA010205
:1004700008BF704730B54FF000050AE050EA0102AE
:1004800008BF704730B511F0004502D5404261EB1E
:1004900041014FF4806404F132045FEA915C3FF45F
:1004A000D8AE4FF003025FEADC0C18BF03325FEAFC
:1004B000DC0C18BF033202EBDC02C2F1200300FAAD
:1004C00003FC20FA02F001FA03FE40EA0E0021FAD2
:1004D00002F11444BDE600BF70B54FF0FF0C4CF4C0
:1004E000E06C1CEA11541DBF1CEA135594EA0C0F72
:1004F00095EA0C0F00F0DEF82C4481EA030621EAAD
:100500004C5123EA4C5350EA013518BF52EA0335E7
:1005100041F4801143F4801338D0A0FB02CE4FF099
:100520000005E1FB02E506F00042E0FB03E54FF0C9
:100530000006E1FB03569CF0000F18BF4EF0010EC1
:10054000A4F1FF04B6F5007F64F5407404D25FEABD
:100550004E0E6D4146EB060642EAC62141EA555170
:100560004FEAC52040EA5E504FEACE2EB4F1FD0CB2
:1005700088BFBCF5E06F1ED8BEF1004F08BF5FEA30
:10058000500E50F1000041EB045170BD06F00046E2
:1005900046EA010140EA020081EA0301B4EB5C048F
:1005A000C2BFD4EB0C0541EA045170BD41F4801187
:1005B0004FF0000E013C00F3AB8014F1360FDEBFAC
:1005C000002001F0004170BDC4F10004203C35DA88
:1005D0000C341BDC04F11404C4F1200500FA05F30B
:1005E00020FA04F001FA05F240EA020001F00042AC
:1005F00021F0004110EBD37021FA04F642EB060122
:100600005EEA430E08BF20EAD37070BDC4F10C044B
:10061000C4F1200500FA04F320FA05F001FA04F20F
:1006200040EA020001F0004110EBD37041F10001FB
:100630005EEA430E08BF20EAD37070BDC4F1200506
:1006400000FA05F24EEA020E20FA04F301FA05F26E
:1006500043EA020321FA04F001F0004121FA04F216
:1006600020EA020000EBD3705EEA430E08BF20EAE6
:10067000D37070BD94F0000F0FD101F00046400020
:1006800041EB010111F4801F08BF013CF7D041EAA2
:10069000060195F0000F18BF704703F000465200A6
:1006A00043EB030313F4801F08BF013DF7D043EA77
:1006B0000603704794EA0C0F0CEA135518BF95EA2D
:1006C0000C0F0CD050EA410618BF52EA4306D1D1B4
:1006D00081EA030101F000414FF0000070BD50EAD3
:1006E000410606BF1046194652EA430619D094EA5D
:1006F0000C0F02D150EA013613D195EA0C0F05D147
:1007000052EA03361CBF104619460AD181EA03019A
:1007100001F0004141F0FE4141F470014FF0000052
:1007200070BD41F0FE4141F4780170BD70B54FF0ED
:10073000FF0C4CF4E06C1CEA11541DBF1CEA13556D
:1007400094EA0C0F95EA0C0F00F0A7F8A4EB05044F
:1007500081EA030E52EA03354FEA013100F0888046
:100760004FEA03334FF0805545EA131343EA12630F
:100770004FEA022245EA111545EA10654FEA0026C4
:100780000EF000419D4208BF964244F1FD0404F57D
:10079000407402D25B084FEA3202B61A65EB0305D9
:1007A0005B084FEA32024FF480104FF4002CB6EB96
:1007B000020E75EB030E22BFB61A754640EA0C0016
:1007C0005B084FEA3202B6EB020E75EB030E22BF56
:1007D000B61A754640EA5C005B084FEA3202B6EB97
:1007E000020E75EB030E22BFB61A754640EA9C0056
:1007F0005B084FEA3202B6EB020E75EB030E22BF26
:10080000B61A754640EADC0055EA060E18D04FEAE3
:10081000051545EA16754FEA06164FEAC30343EA83
:1008200052734FEAC2025FEA1C1CC0D111F4801F50
:100830000BD141EA00014FF000004FF0004CB6E749
:1008400011F4801F04BF01430020B4F1FD0C88BFE8
:10085000BCF5E06F3FF6AFAEB5EB030C04BFB6EBF3
:10086000020C5FEA500C50F1000041EB045170BDE6
:100870000EF0004E4EEA113114EB5C04C2BFD4EB13
:100880000C0541EA045170BD41F480114FF0000E97
:10089000013C90E645EA060E8DE60CEA135594EA13
:1008A0000C0F08BF95EA0C0F3FF43BAF94EA0C0F16
:1008B0000AD150EA01347FF434AF95EA0C0F7FF48B
:1008C00025AF104619462CE795EA0C0F06D152EADF
:1008D00003353FF4FDAE1046194622E750EA4106C3
:1008E00018BF52EA43067FF4C5AE50EA41047FF4D4
:1008F0000DAF52EA43057FF4EBAE12E74FEA410237
:1009000012F5001215D211D56FF47873B3EB625261
:1009100012D94FEAC12343F0004343EA505311F088
:10092000004F23FA02F018BF404270474FF000001A
:10093000704750EA013005D111F0004008BF6FF058
:10094000004070474FF00000704700BF80F000404B
:1009500002E000BF81F0004142001FBF5FEA410397
:1009600092EA030F7FEA226C7FEA236C6AD04FEA97
:100970001262D2EB1363C1BFD218414048404140DC
:10098000B8BF5B42192B88BF704710F0004F40F48E
:10099000000020F07F4018BF404211F0004F41F4AA
:1009A000000121F07F4118BF494292EA030F3FD076
:1009B000A2F1010241FA03FC10EB0C00C3F1200389
:1009C00001FA03F100F0004302D5494260EB400018
:1009D000B0F5000F13D3B0F1807F06D340084FEA83
:1009E000310102F10102FE2A51D2B1F1004F40EB78
:1009F000C25008BF20F0010040EA030070474900E0
:100A000040EB0000013A28BFB0F5000FEDD2B0FA7C
:100A100080FCACF1080CB2EB0C0200FA0CF0AABF9F
:100A200000EBC25052421843BCBFD040184370473D
:100A300092F0000F81F4000106BF80F40000013243
:100A4000013BB5E74FEA41037FEA226C18BF7FEA1A
:100A5000236C21D092EA030F04D092F0000F08BF5C
:100A60000846704790EA010F1CBF0020704712F043
:100A70007F4F04D1400028BF40F00040704712F182
:100A800000723CBF00F50000704700F0004343F0E7
:100A9000FE4040F4000070477FEA226216BF08461D
:100AA0007FEA23630146420206BF5FEA412390EAE0
:100AB000010F40F4800070474FF0000304E000BFD6
:100AC00010F0004348BF40425FEA000C08BF704787
:100AD00043F0964301464FF000001CE050EA01024B
:100AE00008BF70474FF000030AE000BF50EA010260
:100AF00008BF704711F0004302D5404261EB41014D
:100B00005FEA010C02BF84460146002043F0B64371
:100B100008BFA3F18053A3F50003BCFA8CF2083A96
:100B2000A3EBC25310DB01FA02FC634400FA02FC9F
:100B3000C2F12002BCF1004F20FA02F243EB0200A6
:100B400008BF20F00100704702F1200201FA02FC08
:100B5000C2F1200250EA4C0021FA02F243EB0200FB
:100B600008BF20EADC7070474FF0FF0C1CEAD0523F
:100B70001EBF1CEAD15392EA0C0F93EA0C0F6FD000
:100B80001A4480EA010C400218BF5FEA41211ED0DE
:100B90004FF0006343EA501043EA5111A0FB0131CA
:100BA0000CF00040B1F5000F3EBF490041EAD3719F
:100BB0005B0040EA010062F17F02FD2A1DD8B3F11B
:100BC000004F40EBC25008BF20F00100704790F08A
:100BD000000F0CF0004C08BF49024CEA502040EADC
:100BE00051207F3AC2BFD2F1FF0340EAC2507047A2
:100BF00040F400004FF00003013A5DDC12F1190FE0
:100C0000DCBF00F000407047C2F10002410021FA51
:100C100002F1C2F1200200FA02FC5FEA310040F169
:100C2000000053EA4C0308BF20EADC70704792F0E2
:100C3000000F00F0004C02BF400010F4000F013A1A
:100C4000F9D040EA0C0093F0000F01F0004C02BF15
:100C5000490011F4000F013BF9D041EA0C018FE784
:100C60000CEAD15392EA0C0F18BF93EA0C0F0AD08A
:100C700030F0004C18BF31F0004CD8D180EA0100B0
:100C800000F00040704790F0000F17BF90F0004F49
:100C9000084691F0000F91F0004F14D092EA0C0F2B
:100CA00001D142020FD193EA0C0F03D14B0218BFBE
:100CB000084608D180EA010000F0004040F0FE4004
:100CC00040F40000704740F0FE4040F440007047A0
:100CD0004FF0FF0C1CEAD0521EBF1CEAD15392EA1F
:100CE0000C0F93EA0C0F69D0A2EB030280EA010C0F
:100CF00049024FEA402037D04FF0805343EA1111A8
:100D000043EA10130CF000408B4238BF5B0042F105
:100D10007D024FF4000C8B4224BF5B1A40EA0C00AA
:100D2000B3EB510F24BFA3EB510340EA5C00B3EBDC
:100D3000910F24BFA3EB910340EA9C00B3EBD10FCA
:100D400024BFA3EBD10340EADC001B0118BF5FEA1C
:100D50001C1CE0D1FD2A3FF650AF8B4240EBC25045
:100D600008BF20F0010070470CF0004C4CEA502006
:100D70007F32C2BFD2F1FF0340EAC250704740F455
:100D800000004FF00003013A37E792F0000F00F047
:100D9000004C02BF400010F4000F013AF9D040EAC5
:100DA0000C0093F0000F01F0004C02BF490011F459
:100DB000000F013BF9D041EA0C0195E70CEAD15351
:100DC00092EA0C0F08D142027FF47DAF93EA0C0F38
:100DD0007FF470AF084676E793EA0C0F04D14B021C
:100DE0003FF44CAF08466EE730F0004C18BF31F0CE
:100DF000004CCAD130F000427FF45CAF31F00043C8
:100E00007FF43CAF5FE700BF4FEA4002B2F1FE4F14
:100E10000FD34FF09E03B3EB12620DD94FEA0023BC
:100E200043F0004310F0004F23FA02F018BF404295
:100E300070474FF00000704712F1610F01D142027C
:100E400005D110F0004008BF6FF0004070474FF030
:100E5000000070470000000080B582B000AF00F0D5
:100E600061FC00F0B5F900F0A9FA00F001FA00F019
:100E70003DFA00F079FAB84BB84A92E803001860DE
:100E80000433198002330A0C1A70B54B00221A7011
:100E9000B44B00221A70B44B00221A70B34B0022DC
:100EA0001A70B34B00221A60B24B00221A60002362
:100EB0007B609BE0B04B00221A60B04B00221A60AE
:100EC000AF4B00221A60AF4B00221A60AE4800F010
:100ED00087FDAE4800F084FDAB4800F05BFE0346A2
:100EE000A64A1360A94800F055FE0346A24A1360C3
:100EF000A54800F023FEA54800F020FE9E4B1B688D
:100F00001846FFF7D9FD03461846FFF78DFA8EA362
:100F1000D3E90023FFF7E0FA02460B4610461946D4
:100F20004FF000029A4BFFF7D7FA02460B461046E5
:100F300019464FF00002974BFFF7F8FB02460B46AD
:100F40001046194682A3D3E90023FFF70DF90246A4
:100F50000B46104619464FF000028F4BFFF704F97D
:100F600002460B46104619464FF033328B4BFFF7C3
:100F7000DDFB02460B46104619464FF00002884B37
:100F8000FFF7AAFA02460B4610461946FFF7B6FCD1
:100F900003467C4A1360794B1B681846FFF78CFDAB
:100FA000034680491846FFF7DFFD03464FF08A41AC
:100FB0001846FFF78DFE03461846FFF725FF034648
:100FC0006F4A13606A4B1A686E4B1B681344684A79
:100FD0001360684B1A686A4B1B681344654A1360B8
:100FE0000A2000F001FC7B6801337B607B68632B87
:100FF0007FF760AF6C4B00221A606C4B00221A60C6
:1010000001216B4801F0A2FA03461A46674B1A60A9
:101010000221674801F09AFA03461A46624B1A60A9
:10102000534B1B68634A82FB03125211DB17D31A1E
:10103000614A13604F4B1B681846FFF7E3F94FF006
:101040000002574BFFF772FB02460B46104619464B
:101050004FF00002594BFFF789F802460B46104645
:101060001946FFF74BFC0346554A1360544B1B6867
:101070001A4654493A4802F06BFD4F4B1B681A461A
:101080005049384802F064FD474B1B681A464D49E9
:10109000354802F05DFD454B1B681A464949334807
:1010A00002F056FD2C48FFF753F803461A462A4B28
:1010B000134445491A460B461B8813802849264885
:1010C00002F06EFD2448FFF743F803461A46224B10
:1010D00013443D491A460B461B88138021491E487C
:1010E00002F05EFD1C48FFF733F803461A461A4B20
:1010F000134435491A460B461B8813801A49164873
:1011000002F04EFD1448FFF723F803461A46124B2F
:1011100013442D491A460B461B88138013490E4869
:1011200002F03EFD0C48FFF713F803469AB2642321
:101130000949264801F038FF4FF4FA6000F054FBEB
:1011400099E600BFAFF300806666666666660A4091
:10115000CDCCCCCCCCCC104000000020E844000822
:10116000840100208C010020940100209C010020BB
:10117000C8010020B8010020A8010020A40100201F
:10118000B4010020C0010020DC0000200C01002080
:10119000000010400000B040000008403333F33F2F
:1011A0000000594000009642AC010020B001002030
:1011B000000C01401F85EB51C401002000001840C5
:1011C000BC010020F0440008F44400083C01002069
:1011D00080B594B000AF07F12803282200211846FB
:1011E00002F0D6FC07F1140300221A605A609A60DC
:1011F000DA601A613B1D00221A605A609A60DA6058
:101200000223BB620123BB631023FB6300237B64C7
:1012100007F12803184601F0B1F90346002B01D06D
:1012200000F0F6F80F237B610023BB610023FB6114
:1012300000233B6200237B6207F114030021184660
:1012400001F01EFC0346002B01D000F0E1F8022360
:101250007B600023FB603B1D184601F09FFD0346A9
:10126000002B01D000F0D4F800BF5037BD4680BD40
:1012700080B584B000AF3B1D00221A605A609A60AE
:10128000184B194A1A60174B00229A60154B00221E
:101290001A73144B00221A75124B4FF46022DA6154
:1012A000104B00225A600F4B01221A610D4800F0CA
:1012B000BFFA0346002B01D000F0AAF805237B609B
:1012C0000123BB600023FB603B1D1946054800F06D
:1012D0006DFC0346002B01D000F09AF800BF1037D8
:1012E000BD4680BDDC0000200024014080B584B0F4
:1012F00000AF3B1D00221A605A609A60184B194AD1
:101300001A60174B00229A60154B00221A73144B77
:1013100000221A75124B4FF46022DA61104B002242
:101320005A600F4B01221A610D4800F081FA034602
:10133000002B01D000F06CF807237B600123BB6019
:101340000023FB603B1D1946054800F02FFC0346B7
:10135000002B01D000F05CF800BF1037BD4680BD07
:101360000C0100200028014080B500AF114B124A4B
:101370001A60104B4FF4E1325A600E4B00229A6013
:101380000C4B0022DA600B4B00221A61094B0C2235
:101390005A61084B00229A61064B0022DA61054827
:1013A00001F0B2FD0346002B01D000F031F800BF80
:1013B00080BD00BF3C0100200038014080B586B0F0
:1013C00000AF07F1080300221A605A609A60DA60E1
:1013D0000D4B9B690C4A43F0040393610A4B9B69D4
:1013E00003F004037B607B680623BB600023FB6083
:1013F00000233B6107F108031946044800F02AFF67
:1014000000BF1837BD4680BD0010024000080140F3
:1014100080B400AF72B600BF00BFFDE780B485B0F6
:1014200000AF154B9B69144A43F001039361124BC3
:101430009B6903F00103BB60BB680F4BDB690E4A7D
:1014400043F08053D3610C4BDB6903F080537B6026
:101450007B680A4B5B68FB60FB6823F0E063FB6022
:10146000FB6843F00073FB60044AFB68536000BFF5
:101470001437BD4680BC7047001002400000014098
:1014800080B58AB000AF786007F1180300221A60B7
:101490005A609A60DA607B681B68284A934222D1BE
:1014A000274B9B69264A43F400739361244B9B6945
:1014B00003F400737B617B69214B9B69204A43F0F5
:1014C000040393611E4B9B6903F004033B613B697A
:1014D0002023BB610323FB6107F118031946194858
:1014E00000F0B8FE26E07B681B68174A934221D1C2
:1014F000134B9B69124A43F480639361104B9B69C1
:1015000003F48063FB60FB680D4B9B690C4A43F05E
:10151000040393610A4B9B6903F00403BB60BB683F
:101520008023BB610323FB6107F1180319460548BB
:1015300000F090FE00BF2837BD4680BD002401406A
:1015400000100240000801400028014080B588B02A
:1015500000AF786007F1100300221A605A609A60A9
:10156000DA607B681B68204A934239D11F4B9B6924
:101570001E4A43F4804393611C4B9B6903F48043F0
:10158000FB60FB68194B9B69184A43F004039361A5
:10159000164B9B6903F00403BB60BB684FF40073F8
:1015A0003B6102237B610323FB6107F110031946B2
:1015B0000F4800F04FFE4FF480633B6100237B61D6
:1015C0000023BB6107F110031946094800F042FEF1
:1015D00000220121252000F054FD252000F06DFDA2
:1015E00000BF2037BD4680BD0038014000100240DA
:1015F0000008014080B400AF00BFFDE780B400AF39
:1016000000BFFDE780B400AF00BFFDE780B400AFCE
:1016100000BFFDE780B400AF00BFFDE780B400AFBE
:1016200000BFBD4680BC704780B400AF00BFBD4660
:1016300080BC704780B400AF00BFBD4680BC70471F
:1016400080B500AF00F0B4F800BF80BD80B500AF3A
:10165000024801F02DFD00BF80BD00BF3C0100200D
:1016600080B586B000AF7860144A154BD31A7B6101
:101670007B693B61134B1B68002B02D1114B124A53
:101680001A60104B1A687B6813443A699A4207D271
:1016900002F096FA03460C221A604FF0FF3309E07D
:1016A000084B1B68FB60074B1A687B681344054AAC
:1016B0001360FB6818461837BD4680BD002800201F
:1016C00000040000CC0100202003002080B400AF03
:1016D00000BFBD4680BC7047FFF7F8FF0B480C49C0
:1016E0000C4A002302E0D458C4500433C4188C427E
:1016F000F9D3094A094C002301E013600432A242E5
:10170000FBD302F063FAFFF7A7FB7047000000204D
:10171000C000002068450008C00000201C03002015
:10172000FEE7000080B500AF084B1B68074A43F096
:1017300010031360032000F099FC0F2000F008F85C
:10174000FFF76CFE0023184680BD00BF002002405A
:1017500080B582B000AF7860124B1A68124B1B78CC
:1017600019464FF47A73B3FBF1F3B2FBF3F3184667
:1017700000F0B1FC0346002B01D001230EE07B6892
:101780000F2B0AD8002279684FF0FF3000F079FC67
:10179000064A7B681360002300E0012318460837DF
:1017A000BD4680BD640000206C0000206800002061
:1017B00080B400AF054B1B781A46054B1B681344D9
:1017C000034A136000BFBD4680BC70476C00002018
:1017D000D001002080B400AF024B1B681846BD4604
:1017E00080BC7047D001002080B584B000AF786025
:1017F000FFF7F0FFB8607B68FB60FB68B3F1FF3F69
:1018000005D00A4B1B781A46FB681344FB6000BFE7
:10181000FFF7E0FF0246BB68D31AFA689A42F7D88E
:1018200000BF00BF1037BD4680BD00BF6C00002068
:1018300080B586B000AF78600023FB7500233B6164
:101840000023BB600023FB607B68002B01D10123D8
:10185000BEE07B689B68002B7B689B6A002B09D1EC
:101860007B680022DA627B68002283F82420786893
:10187000FFF706FE786800F0EBFA0346FB757B681D
:101880009B6A03F01003002B40F09980FB7D002B36
:1018900040F095807B689B6A23F4885323F0020311
:1018A00043F002027B689A627B685A687B68DB6956
:1018B0001A437B681B7B5B001343BA681343BB600E
:1018C0007B689B68B3F5807F03D07B689B68012BA6
:1018D00002D14FF4807300E000233A6913433B6167
:1018E0007B681B7D012B19D17B681B7B002B09D1E9
:1018F0007B689B69013B5A033B69134343F40063D4
:101900003B610BE07B689B6A43F020027B689A6234
:101910007B68DB6A43F001027B68DA627B681B68E4
:101920005B6823F469417B681B683A690A435A6023
:101930007B681B689A68284B13407A681268B968FC
:101940000B4393607B689B68B3F5807F03D07B6813
:101950009B68012B04D17B681B69013B1B05FB6065
:101960007B681B68DB6A23F470017B681B68FA687C
:101970000A43DA627B681B689A68184B1340BA689E
:101980009A420BD17B680022DA627B689B6A23F063
:10199000030343F001027B689A6218E07B689B6A4C
:1019A00023F0120343F010027B689A627B68DB6AC3
:1019B00043F001027B68DA620123FB7507E07B6874
:1019C0009B6A43F010027B689A620123FB75FB7DE2
:1019D00018461837BD4680BDFDF7E1FFFE0E1FFF1C
:1019E00080B584B000AF78600023FB737B6893F808
:1019F0002430012B01D1022398E07B68012283F877
:101A00002420786800F0CAF90346FB73FB7B002BA7
:101A100040F087807B689B6A23F4407323F00103C6
:101A200043F480727B689A627B681B68414A9342E8
:101A300005D1414B5B6803F47023002B15D17B6803
:101A40009B6A23F480127B689A627B681B685B68E0
:101A500003F48063002B26D07B689B6A23F44053F9
:101A600043F480527B689A621DE07B689B6A43F472
:101A700080127B689A627B681B682F4A934204D06D
:101A80007B681B682B4A93420DD12B4B5B6803F498
:101A90008063002B07D07B689B6A23F4405343F498
:101AA00080527B689A627B689B6A03F48053002BA8
:101AB00006D07B68DB6A23F006027B68DA6202E00C
:101AC0007B680022DA627B68002283F824207B682E
:101AD0001B686FF002021A607B681B689B6803F446
:101AE0006023B3F5602F13D17B681B68114A9342C2
:101AF00005D1114B5B6803F47023002B08D17B6880
:101B00001B689A687B681B6842F4A0029A600CE02C
:101B10007B681B689A687B681B6842F480129A6035
:101B200003E07B68002283F82420FB7B18461037F3
:101B3000BD4680BD002801400024014080B584B02E
:101B400000AF78600023FB737B6893F82430012B8F
:101B500001D102231AE07B68012283F824207868EF
:101B600000F076F90346FB73FB7B002B09D17B6801
:101B70009B6A23F4885323F0010343F001027B683E
:101B80009A627B68002283F82420FB7B184610377A
:101B9000BD4680BD80B483B000AF78607B681B68B1
:101BA000DB6C18460C37BD4680BC704780B485B0EE
:101BB00000AF786039600023FB730023BB607B6853
:101BC00093F82430012B01D10223DCE07B68012251
:101BD00083F824203B685B68062B1CD87B681B6855
:101BE000596B3B685A6813469B001344053B1F2200
:101BF00002FA03F3DB4319403B6818683B685A68F4
:101C000013469B001344053B00FA03F27B681B68F4
:101C10000A435A633CE03B685B680C2B1CD87B682A
:101C20001B68196B3B685A6813469B001344233B9F
:101C30001F2202FA03F3DB4319403B6818683B6834
:101C40005A6813469B001344233B00FA03F27B6857
:101C50001B680A431A631BE07B681B68D96A3B68F0
:101C60005A6813469B001344413B1F2202FA03F3B8
:101C7000DB4319403B6818683B685A6813469B0071
:101C80001344413B00FA03F27B681B680A43DA62A3
:101C90003B681B68092B1CD97B681B68D9683B68AB
:101CA0001A6813465B0013441E3B072202FA03F333
:101CB000DB4319403B6898683B681A6813465B0031
:101CC00013441E3B00FA03F27B681B680A43DA6088
:101CD00019E07B681B6819693B681A6813465B004A
:101CE0001344072202FA03F3DB4319403B68986868
:101CF0003B681A6813465B00134400FA03F27B68E2
:101D00001B680A431A613B681B68102B03D03B68B1
:101D10001B68112B32D17B681B681D4A934225D169
:101D20007B681B689B6803F40003002B26D17B684B
:101D30001B689A687B681B6842F400029A603B68E3
:101D40001B68102B1AD1134B1B68134AA2FB0323E9
:101D50009A0C13469B0013445B00BB6002E0BB6817
:101D6000013BBB60BB68002BF9D107E07B689B6A35
:101D700043F020027B689A620123FB737B68002298
:101D800083F82420FB7B18461437BD4680BC70477F
:101D9000002401406400002083DE1B4380B584B032
:101DA00000AF78600023FB600023BB607B681B688A
:101DB0009B6803F00103012B40D07B681B689A6885
:101DC0007B681B6842F001029A601F4B1B681F4A28
:101DD000A2FB03239B0CBB6002E0BB68013BBB6022
:101DE000BB68002BF9D1FFF7F5FCF8601FE0FFF7A7
:101DF000F1FC0246FB68D31A022B18D97B681B68DA
:101E00009B6803F00103012B11D07B689B6A43F0B0
:101E100010027B689A627B68DB6A43F001027B6890
:101E2000DA627B68002283F82420012307E07B68C4
:101E30001B689B6803F00103012BD8D100231846CF
:101E40001037BD4680BD00BF6400002083DE1B4309
:101E500080B584B000AF78600023FB607B681B68AE
:101E60009B6803F00103012B2ED17B681B689A68E5
:101E70007B681B6822F001029A60FFF7ABFCF860F8
:101E80001BE0FFF7A7FC0246FB68D31A022B14D90C
:101E90007B681B689B6803F00103012B0DD17B68F5
:101EA0009B6A43F010027B689A627B68DB6A43F0AE
:101EB00001027B68DA62012307E07B681B689B688C
:101EC00003F00103012BDCD0002318461037BD4678
:101ED00080BD000080B485B000AF78607B6803F0FF
:101EE0000703FB600C4BDB68BB60BA684FF6FF036F
:101EF0001340BB60FB681A02BB68134343F0BF6327
:101F000043F40033BB60044ABB68D36000BF14379E
:101F1000BD4680BC704700BF00ED00E080B400AF5C
:101F2000044BDB681B0A03F007031846BD4680BC60
:101F3000704700BF00ED00E080B483B000AF0346FF
:101F4000FB7197F90730002B0BDBFB7903F01F02C5
:101F5000064997F907305B09012000FA02F241F8BF
:101F6000232000BF0C37BD4680BC704700E100E075
:101F700080B483B000AF03463960FB7197F9073036
:101F8000002B0ADB3B68DAB20C4997F907301201E3
:101F9000D2B20B4483F800230AE03B68DAB2084966
:101FA000FB7903F00F03043B1201D2B20B441A7603
:101FB00000BF0C37BD4680BC704700BF00E100E0A9
:101FC00000ED00E080B489B000AFF860B9607A60DD
:101FD000FB6803F00703FB61FB69C3F10703042BF4
:101FE00028BF0423BB61FB690433062B02D9FB69BC
:101FF000033B00E000237B614FF0FF32BB6902FA34
:1020000003F3DA43BB681A407B699A404FF0FF3113
:102010007B6901FA03F3D9437B680B4013431846ED
:102020002437BD4680BC704780B582B000AF786071
:102030007B68013BB3F1807F01D301230FE00A4AA3
:102040007B68013B53600F214FF0FF30FFF790FF9B
:10205000054B00229A60044B07221A6000231846A1
:102060000837BD4680BD00BF10E000E080B582B0FB
:1020700000AF78607868FFF72DFF00BF0837BD46D6
:1020800080BD80B586B000AF0346B9607A60FB734F
:1020900000237B61FFF742FF78617A68B96878694D
:1020A000FFF790FF024697F90F3011461846FFF7E9
:1020B0005FFF00BF1837BD4680BD80B582B000AF5E
:1020C0000346FB7197F907301846FFF735FF00BF4D
:1020D0000837BD4680BD80B582B000AF78607868B3
:1020E000FFF7A2FF034618460837BD4680BD80B4FF
:1020F00085B000AF78600023FB737B6893F82130D4
:10210000DBB2022B08D07B6804229A637B68002232
:1021100083F82020012320E07B681B681A687B6815
:102120001B6822F00E021A607B681B681A687B68C5
:102130001B6822F001021A607B681A6C7B68DB6BFB
:10214000012101FA02F25A607B68012283F8212002
:102150007B68002283F82020FB7B18461437BD469D
:1021600080BC704780B584B000AF78600023FB73FB
:102170007B6893F82130DBB2022B05D07B68042208
:102180009A630123FB7351E07B681B681A687B68C4
:102190001B6822F00E021A607B681B681A687B6855
:1021A0001B6822F001021A607B681B68224A934276
:1021B00029D07B681B68214A934222D07B681B6828
:1021C0001F4A93421AD07B681B681E4A934212D062
:1021D0007B681B681C4A93420AD07B681B681B4AB9
:1021E000934202D14FF480130EE04FF080730BE066
:1021F0004FF4803308E04FF4805305E04FF48073D0
:1022000002E0102300E00123114A53607B680122A1
:1022100083F821207B68002283F820207B685B6B99
:10222000002B03D07B685B6B78689847FB7B184674
:102230001037BD4680BD00BF080002401C000240B0
:102240003000024044000240580002406C0002404E
:102250000000024080B48BB000AF7860396000238A
:102260007B6200233B6261E101227B6A02FA03F395
:10227000FB613B681B68FA691340BB61BA69FB6983
:102280009A4240F050813B685B68974A93425ED027
:10229000954A934275D8954A934258D0934A9342AF
:1022A0006FD8934A934252D0914A934269D8914A47
:1022B00093424CD08F4A934263D88F4A934246D080
:1022C0008D4A93425DD8122B2AD8122B59D801A2DD
:1022D00052F823F04F230008292300083B2300086D
:1022E0007D2300088323000883230008832300083C
:1022F0008323000883230008832300088323000826
:102300008323000883230008832300088323000815
:102310008323000883230008312300084523000895
:10232000764A934213D02CE03B68DB683B6229E09D
:102330003B68DB6804333B6224E03B68DB680833BE
:102340003B621FE03B68DB680C333B621AE03B6892
:102350009B68002B02D104233B6213E03B689B681F
:10236000012B05D108233B627B68FA691A6109E0F9
:1023700008233B627B68FA695A6103E000233B62F1
:1023800000E000BFBB69FF2B01D87B6801E07B68E0
:1023900004337B61BB69FF2B02D87B6A9B0002E0A0
:1023A0007B6A083B9B003B617B691A680F213B6994
:1023B00001FA03F3DB431A40396A3B6901FA03F37C
:1023C0001A437B691A603B685B6803F08053002BFB
:1023D00000F0A9804A4B9B69494A43F0010393618D
:1023E000474B9B6903F00103BB60BB68454A7B6AAE
:1023F0009B08023352F82330FB607B6A03F003032F
:102400009B000F2202FA03F3DB43FA681340FB60E0
:102410007B683D4A93420DD07B683C4A934207D08B
:102420007B683B4A934201D1022304E0032302E08C
:10243000012300E000237A6A02F003029200934035
:10244000FA681343FB602F497B6A9B080233FA68E2
:1024500041F823203B685B6803F48013002B06D00F
:102460002C4B9A682B49BB6913438B6006E0294BC0
:102470009A68BB69DB43274913408B603B685B6804
:1024800003F40013002B06D0224BDA682149BB6904
:102490001343CB6006E01F4BDA68BB69DB431D4981
:1024A0001340CB603B685B6803F40033002B06D01D
:1024B000184B5A681749BB6913434B6006E0154B2C
:1024C0005A68BB69DB43134913404B603B685B6848
:1024D00003F48033002B1FD00E4B1A680D49BB69E3
:1024E00013430B601FE000BF0000321000003110EA
:1024F0000000221000002110000012100000111036
:10250000001002400000014000080140000C0140A2
:1025100000100140000401400B4B1A68BB69DB430B
:10252000094913400B607B6A01337B623B681A6880
:102530007B6A22FA03F3002B7FF496AE00BF00BF44
:102540002C37BD4680BC70470004014080B485B084
:1025500000AF78600B467B807B689A687B8813406D
:10256000002B02D00123FB7301E00023FB73FB7BF4
:1025700018461437BD4680BC7047000080B586B051
:1025800000AF78607B68002B01D1012372E27B6889
:102590001B6803F00103002B00F08780924B5B68FF
:1025A00003F00C03042B0CD08F4B5B6803F00C037F
:1025B000082B12D18C4B5B6803F48033B3F5803F5A
:1025C0000BD1894B1B6803F40033002B6CD07B6864
:1025D0005B68002B68D101234CE27B685B68B3F534
:1025E000803F06D1804B1B687F4A43F480331360E1
:1025F0002EE07B685B68002B0CD17B4B1B687A4A12
:1026000023F480331360784B1B68774A23F48023CC
:1026100013601DE07B685B68B3F5A02F0CD1724B93
:102620001B68714A43F4802313606F4B1B686E4A2A
:1026300043F4803313600BE06B4B1B686A4A23F44E
:1026400080331360684B1B68674A23F48023136050
:102650007B685B68002B13D0FFF7BCF8386108E09B
:10266000FFF7B8F802463B69D31A642B01D903235C
:1026700000E25D4B1B6803F40033002BF0D014E044
:10268000FFF7A8F8386108E0FFF7A4F802463B69B5
:10269000D31A642B01D90323ECE1534B1B6803F4D9
:1026A0000033002BF0D100E000BF7B681B6803F013
:1026B0000203002B63D04C4B5B6803F00C03002B30
:1026C0000BD0494B5B6803F00C03082B1CD1464B25
:1026D0005B6803F48033002B16D1434B1B6803F077
:1026E0000203002B05D07B681B69012B01D001235D
:1026F000C0E13D4B1B6823F0F8027B685B69DB009F
:10270000394913430B603AE07B681B69002B20D0EA
:10271000364B01221A60FFF75DF8386108E0FFF7D9
:1027200059F802463B69D31A022B01D90323A1E1D0
:102730002D4B1B6803F00203002BF0D02A4B1B68C3
:1027400023F0F8027B685B69DB00274913430B60C9
:1027500015E0264B00221A60FFF73CF8386108E0CC
:10276000FFF738F802463B69D31A022B01D903233D
:1027700080E11D4B1B6803F00203002BF0D17B6846
:102780001B6803F00803002B3AD07B689B69002B81
:1027900019D0174B01221A60FFF71CF8386108E0C6
:1027A000FFF718F802463B69D31A022B01D903231D
:1027B00060E10D4B5B6A03F00203002BF0D00120B7
:1027C00000F0CEFA1CE00A4B00221A60FFF702F874
:1027D00038610FE0FEF7FEFF02463B69D31A022B79
:1027E00008D9032346E100BF001002400000424226
:1027F00080044242924B5B6A03F00203002BE9D152
:102800007B681B6803F00403002B00F0A680002304
:10281000FB758B4BDB6903F08053002B0DD1884B8C
:10282000DB69874A43F08053D361854BDB6903F052
:102830008053BB60BB680123FB75824B1B6803F4AC
:102840008073002B18D17F4B1B687E4A43F4807342
:102850001360FEF7BFFF386108E0FEF7BBFF0246DA
:102860003B69D31A642B01D9032303E1754B1B6821
:1028700003F48073002BF0D07B68DB68012B06D15A
:102880006F4B1B6A6E4A43F0010313622DE07B68B5
:10289000DB68002B0CD16A4B1B6A694A23F00103E9
:1028A0001362674B1B6A664A23F0040313621CE041
:1028B0007B68DB68052B0CD1614B1B6A604A43F0D7
:1028C000040313625E4B1B6A5D4A43F0010313620B
:1028D0000BE05B4B1B6A5A4A23F001031362584B0F
:1028E0001B6A574A23F0040313627B68DB68002BE2
:1028F00015D0FEF76FFF38610AE0FEF76BFF024666
:102900003B69D31A41F28832934201D90323B1E0E3
:102910004B4B1B6A03F00203002BEED014E0FEF7D2
:1029200059FF38610AE0FEF755FF02463B69D31AAA
:1029300041F28832934201D903239BE0404B1B6A4A
:1029400003F00203002BEED1FB7D012B05D13C4BA4
:10295000DB693B4A23F08053D3617B68DB69002B42
:1029600000F08780364B5B6803F00C03082B61D0C6
:102970007B68DB69022B46D1334B00221A60FEF7DD
:1029800029FF386108E0FEF725FF02463B69D31AAC
:10299000022B01D903236DE0294B1B6803F0007360
:1029A000002BF0D17B681B6AB3F5803F08D1244B24
:1029B0005B6823F400327B689B68214913434B60BA
:1029C0001F4B5B6823F474127B68196A7B685B6A2F
:1029D0000B431B4913434B601B4B01221A60FEF74C
:1029E000F9FE386108E0FEF7F5FE02463B69D31AAE
:1029F000022B01D903233DE0114B1B6803F0007348
:102A0000002BF0D035E0104B00221A60FEF7E2FEFA
:102A1000386108E0FEF7DEFE02463B69D31A022B5E
:102A200001D9032326E0064B1B6803F00073002B3B
:102A3000F0D11EE07B68DB69012B07D1012319E08F
:102A40000010024000700040600042420B4B5B6887
:102A5000FB60FB6803F480327B681B6A9A4206D1F4
:102A6000FB6803F470127B685B6A9A4201D0012311
:102A700000E0002318461837BD4680BD0010024014
:102A800080B584B000AF786039607B68002B01D1DD
:102A90000123D0E06A4B1B6803F007033A689A42AF
:102AA00010D9674B1B6823F0070265493B68134345
:102AB0000B60634B1B6803F007033A689A4201D02E
:102AC0000123B8E07B681B6803F00203002B20D0D1
:102AD0007B681B6803F00403002B05D0594B5B682F
:102AE000584A43F4E06353607B681B6803F00803B3
:102AF000002B05D0534B5B68524A43F4605353603C
:102B0000504B5B6823F0F0027B689B684D49134390
:102B10004B607B681B6803F00103002B40D07B688F
:102B20005B68012B07D1474B1B6803F40033002B74
:102B300015D101237FE07B685B68022B07D1414BF5
:102B40001B6803F00073002B09D1012373E03D4B98
:102B50001B6803F00203002B01D101236BE0394B0A
:102B60005B6823F003027B685B68364913434B6064
:102B7000FEF730FEF8600AE0FEF72CFE0246FB6826
:102B8000D31A41F28832934201D9032353E02D4BEB
:102B90005B6803F00C027B685B689B009A42EBD198
:102BA000274B1B6803F007033A689A4210D2244B64
:102BB0001B6823F0070222493B6813430B60204B3C
:102BC0001B6803F007033A689A4201D0012332E000
:102BD0007B681B6803F00403002B08D0194B5B686B
:102BE00023F4E0627B68DB68164913434B607B6823
:102BF0001B6803F00803002B09D0124B5B6823F419
:102C000060527B681B69DB000E4913434B6000F088
:102C100021F802460B4B5B681B0903F00F030A49BE
:102C2000CB5C22FA03F3094A1360094B1B68184670
:102C3000FEF78EFD002318461037BD4680BD00BF4D
:102C40000020024000100240F84400086400002008
:102C50006800002080B487B000AF0023FB60002331
:102C6000BB6000237B6100237B6000233B611E4B24
:102C70005B68FB60FB6803F00C03042B02D0082B9D
:102C800003D027E0194B3B6127E0FB689B0C03F066
:102C90000F03174AD35C7B60FB6803F48033002B7F
:102CA00010D0114B5B685B0C03F00103114AD35C3D
:102CB000BB607B680D4A03FB02F2BB68B2FBF3F317
:102CC0007B6104E07B680C4A02FB03F37B617B6958
:102CD0003B6102E0054B3B6100BF3B6918461C3776
:102CE000BD4680BC704700BF0010024000127A0051
:102CF000104500082045000800093D0080B400AFE1
:102D0000024B1B681846BD4680BC7047640000201B
:102D100080B500AFFFF7F2FF0246054B5B681B0A68
:102D200003F007030349CB5C22FA03F3184680BD86
:102D3000001002400845000880B500AFFFF7DEFF35
:102D40000246054B5B68DB0A03F007030349CB5CD3
:102D500022FA03F3184680BD00100240084500081F
:102D600080B485B000AF78600A4B1B680A4AA2FBAA
:102D700003235B0A7A6802FB03F3FB6000BFFB6876
:102D80005A1EFA60002BF9D100BF00BF1437BD46B0
:102D900080BC704764000020D34D621080B586B0BF
:102DA00000AF786000233B610023FB607B681B68F9
:102DB00003F00103002B7DD00023FB754F4BDB6933
:102DC00003F08053002B0DD14C4BDB694B4A43F091
:102DD0008053D361494BDB6903F08053BB60BB6810
:102DE0000123FB75464B1B6803F48073002B18D13D
:102DF000434B1B68424A43F480731360FEF7EAFCBE
:102E0000386108E0FEF7E6FC02463B69D31A642B02
:102E100001D903236DE03A4B1B6803F48073002B48
:102E2000F0D0364B1B6A03F44073FB60FB68002B49
:102E30002ED07B685B6803F44073FA689A4227D00F
:102E40002E4B1B6A23F44073FB602E4B01221A6049
:102E50002C4B00221A60294AFB681362FB6803F0BE
:102E60000103002B14D0FEF7B5FC38610AE0FEF731
:102E7000B1FC02463B69D31A41F28832934201D930
:102E8000032336E01D4B1B6A03F00203002BEED038
:102E90001A4B1B6A23F440727B685B681749134323
:102EA0000B62FB7D012B05D1144BDB69134A23F028
:102EB0008053D3617B681B6803F00203002B08D0AA
:102EC0000E4B5B6823F440427B689B680B491343BD
:102ED0004B607B681B6803F01003002B08D0074B86
:102EE0005B6823F480027B68DB68044913434B6012
:102EF000002318461837BD4680BD00BF00100240B1
:102F0000007000404004424280B582B000AF78605B
:102F10007B68002B01D1012342E07B6893F84130AC
:102F2000DBB2002B06D17B68002283F84020786852
:102F3000FEF70CFB7B68242283F841207B681B682A
:102F4000DA687B681B6822F40052DA60786800F067
:102F500071FD7B681B681A697B681B6822F49042CC
:102F60001A617B681B685A697B681B6822F02A0219
:102F70005A617B681B68DA687B681B6842F4005200
:102F8000DA607B6800225A647B68202283F8412043
:102F90007B68202283F842207B6800225A6300234A
:102FA00018460837BD4680BD80B58AB002AFF860CC
:102FB000B9603B601346FB8000237B61FB6893F89C
:102FC0004130DBB2202B6DD1BB68002B02D0FB88D7
:102FD000002B01D1012366E0FB6800225A64FB68E4
:102FE000212283F84120FEF7F5FB7861FB68FA881F
:102FF0009A84FB68FA88DA84FB689B68B3F5805F83
:1030000008D1FB681B69002B04D10023FB61BB685E
:10301000BB6103E0BB68FB610023BB612AE03B6846
:1030200000937B6900228021F86800F0F9FA0346DA
:10303000002B01D0032336E0FB69002B0BD1BB69C9
:103040001B881A46FB681B68C2F308025A60BB69FA
:103050000233BB6107E0FB691A78FB681B685A60A2
:10306000FB690133FB61FB68DB8C9BB2013B9AB2CD
:10307000FB68DA84FB68DB8C9BB2002BCFD13B680A
:1030800000937B6900224021F86800F0C9FA0346EA
:10309000002B01D0032306E0FB68202283F84120A7
:1030A000002300E0022318462037BD4680BD000003
:1030B00080B5BAB000AF78607B681B681B68C7F842
:1030C000E4307B681B68DB68C7F8E0307B681B680E
:1030D0005B69C7F8DC300023C7F8D8300023C7F895
:1030E000D430D7F8E43003F00F03C7F8D830D7F85E
:1030F000D830002B0FD1D7F8E43003F02003002B99
:1031000009D0D7F8E03003F02003002B03D0786813
:1031100000F0D1FB5BE2D7F8D830002B00F0DE8066
:10312000D7F8DC3003F00103002B06D1D7F8E030EC
:1031300003F49073002B00F0D180D7F8E43003F053
:103140000103002B0BD0D7F8E03003F48073002B81
:1031500005D07B685B6C43F001027B685A64D7F84A
:10316000E43003F00403002B0BD0D7F8DC3003F07D
:103170000103002B05D07B685B6C43F002027B6887
:103180005A64D7F8E43003F00203002B0BD0D7F8D1
:10319000DC3003F00103002B05D07B685B6C43F04F
:1031A00004027B685A64D7F8E43003F00803002B6C
:1031B00011D0D7F8E03003F02003002B05D1D7F869
:1031C000DC3003F00103002B05D07B685B6C43F01F
:1031D00008027B685A647B685B6C002B00F0F2810C
:1031E000D7F8E43003F02003002B08D0D7F8E03004
:1031F00003F02003002B02D0786800F05CFB7B68B2
:103200001B685B6903F04003002B14BF01230023FC
:10321000DBB2C7F8D4307B685B6C03F00803002B8B
:1032200003D1D7F8D430002B4FD0786800F066FA7D
:103230007B681B685B6903F04003002B41D07B680F
:103240001B681433C7F89C30D7F89C3053E8003F14
:10325000C7F89830D7F8983023F04003C7F8D0303B
:103260007B681B681433D7F8D020C7F8A820C7F8AC
:10327000A430D7F8A410D7F8A82041E80023C7F855
:10328000A030D7F8A030002BD9D17B68DB6B002BA6
:1032900013D07B68DB6B7E4A5A637B68DB6B184616
:1032A000FEF760FF0346002B16D07B68DB6B5B6B81
:1032B0007A68D26B104698470EE0786800F09CF967
:1032C0000AE0786800F098F906E0786800F094F970
:1032D0007B6800225A6475E100BF73E17B681B6B59
:1032E000012B40F04F81D7F8E43003F01003002B9E
:1032F00000F04881D7F8E03003F01003002B00F015
:1033000041810023BB607B681B681B68BB607B68D6
:103310001B685B68BB60BB687B681B685B6903F00C
:103320004003002B00F0B6807B68DB6B1B685B689A
:10333000A7F8BE30B7F8BE30002B00F045817B689F
:103340009B8DB7F8BE209A4280F03E817B68B7F82B
:10335000BE20DA857B68DB6B9B69202B00F08880C0
:103360007B681B680C33C7F88830D7F8883053E87F
:10337000003FC7F88430D7F8843023F48073C7F84F
:10338000B8307B681B680C33D7F8B820C7F8942096
:10339000C7F89030D7F89010D7F8942041E8002370
:1033A000C7F88C30D7F88C30002BD9D17B681B68DC
:1033B00014337B677B6F53E8003F3B673B6F23F021
:1033C0000103C7F8B4307B681B681433D7F8B42006
:1033D000C7F88020FB67F96FD7F8802041E8002309
:1033E000BB67BB6F002BE1D17B681B6814333B6666
:1033F0003B6E53E8003FFB65FB6D23F04003C7F8CD
:10340000B0307B681B681433D7F8B020FA66BB660F
:10341000B96EFA6E41E800237B667B6E002BE3D128
:103420007B68202283F842207B6800221A637B6835
:103430001B680C33FB64FB6C53E8003FBB64BB6C44
:1034400023F01003C7F8AC307B681B680C33D7F847
:10345000AC20BA657B65796DBA6D41E800233B65A8
:103460003B6D002BE3D17B68DB6B1846FEF73FFE1C
:103470007B6802225A637B689A8D7B68DB8D9BB2E6
:10348000D31A9BB21946786800F0BFF89CE000BFE1
:10349000C13700087B689A8D7B68DB8D9BB2D31A9D
:1034A000A7F8CE307B68DB8D9BB2002B00F08E80BE
:1034B000B7F8CE30002B00F089807B681B680C3396
:1034C000BB63BB6B53E8003F7B637B6B23F4907360
:1034D000C7F8C8307B681B680C33D7F8C8207A64FB
:1034E0003B64396C7A6C41E80023FB63FB6B002B77
:1034F000E3D17B681B6814337B627B6A53E8003F2F
:103500003B623B6A23F00103C7F8C4307B681B6849
:103510001433D7F8C4203A63FB62F96A3A6B41E886
:103520000023BB62BB6A002BE3D17B68202283F8B7
:1035300042207B6800221A637B681B680C333B6166
:103540003B6953E8003FFB60FB6823F01003C7F8BA
:10355000C0307B681B680C33D7F8C020FA61BB61B0
:10356000B969FA6941E800237B617B69002BE3D1EB
:103570007B6802225A63B7F8CE301946786800F0AB
:1035800044F823E0D7F8E43003F08003002B09D09F
:10359000D7F8E03003F08003002B03D0786800F008
:1035A00023F914E0D7F8E43003F04003002B0ED0E9
:1035B000D7F8E03003F04003002B08D0786800F023
:1035C00062F904E000BF02E000BF00E000BFE8379E
:1035D000BD4680BD80B483B000AF786000BF0C37BB
:1035E000BD4680BC704780B483B000AF786000BF38
:1035F0000C37BD4680BC704780B483B000AF7860A4
:1036000000BF0C37BD4680BC704780B483B000AFAC
:1036100078600B467B8000BF0C37BD4680BC70478E
:1036200080B590B000AFF860B9603B601346FB71A5
:1036300050E0BB6CB3F1FF3F4CD0BB6C002B07D00C
:10364000FEF7C8F802463B68D31ABA6C9A4241D2D8
:10365000FB681B680C33BB62BB6A53E8003F7B62AC
:103660007B6A23F4D073FB63FB681B680C33FA6B33
:103670007A633B63396B7A6B41E80023FB62FB6A38
:10368000002BE5D1FB681B6814337B617B6953E831
:10369000003F3B613B6923F00103BB63FB681B6890
:1036A0001433BA6B3A62FB61F9693A6A41E8002364
:1036B000BB61BB69002BE5D1FB68202283F8412068
:1036C000FB68202283F84220FB68002283F8402018
:1036D00003230FE0FB681B681A68BB681340BA68D5
:1036E0009A420CBF01230023DBB21A46FB799A42AF
:1036F0009FD0002318464037BD4680BD80B495B0AA
:1037000000AF78607B681B680C337B637B6B53E88E
:10371000003F3B633B6B23F49073FB647B681B6847
:103720000C33FA6C3A64FB63F96B3A6C41E80023A2
:10373000BB63BB6B002BE5D17B681B6814333B621A
:103740003B6A53E8003FFB61FB6923F00103BB6464
:103750007B681B681433BA6CFA62BB62B96AFA6A96
:1037600041E800237B627B6A002BE5D17B681B6B01
:10377000012B19D17B681B680C33FB60FB6853E895
:10378000003FBB60BB6823F010037B647B681B6851
:103790000C337A6CBA617B617969BA6941E80023BC
:1037A0003B613B69002BE5D17B68202283F84220F6
:1037B0007B6800221A6300BF5437BD4680BC704747
:1037C00080B584B000AF78607B685B6AFB60FB68A3
:1037D0000022DA85FB680022DA84F868FFF70CFF24
:1037E00000BF1037BD4680BD80B485B000AF7860A3
:1037F0007B6893F84130DBB2212B3ED17B689B681C
:10380000B3F5805F14D17B681B69002B10D17B68F6
:103810001B6AFB60FB681B881A467B681B68C2F347
:1038200008025A607B681B6A9A1C7B681A6208E06F
:103830007B681B6A591C7A6811621A787B681B685E
:103840005A607B68DB8C9BB2013B9BB27A6819465D
:10385000D184002B0FD17B681B68DA687B681B68FA
:1038600022F08002DA607B681B68DA687B681B687C
:1038700042F04002DA60002300E0022318461437C9
:10388000BD4680BC704780B582B000AF78607B6871
:103890001B68DA687B681B6822F04002DA607B688C
:1038A000202283F841207868FFF794FE0023184611
:1038B0000837BD4680BD80B58CB000AF78607B68AE
:1038C00093F84230DBB2222B40F0AE807B689B68DD
:1038D000B3F5805F17D17B681B69002B13D10023E0
:1038E000FB627B689B6ABB627B681B685B689BB200
:1038F000C3F308039AB2BB6A1A807B689B6A9A1C5E
:103900007B689A6226E07B689B6AFB620023BB624D
:103910007B689B68B3F5805F07D07B689B68002B52
:103920000AD17B681B69002B06D17B681B685B682A
:10393000DAB2FB6A1A7008E07B681B685B68DBB26E
:1039400003F07F03DAB2FB6A1A707B689B6A5A1C29
:103950007B689A627B68DB8D9BB2013B9BB27A6885
:103960001946D185002B5DD17B681B68DA687B68BE
:103970001B6822F02002DA607B681B68DA687B68CB
:103980001B6822F48072DA607B681B685A697B6866
:103990001B6822F001025A617B68202283F84220D2
:1039A0007B6800225A637B681B6B012B35D17B68D7
:1039B00000221A637B681B680C337B617B6953E8C8
:1039C000003F3B613B6923F010037B627B681B680F
:1039D0000C337A6A3A62FB61F9693A6A41E800237A
:1039E000BB61BB69002BE5D17B681B681B6803F0DA
:1039F0001003102B0AD10023FB607B681B681B6837
:103A0000FB607B681B685B68FB60FB687B689B8D69
:103A100019467868FFF7F9FD02E07868FFF7E3FDE3
:103A2000002302E0002300E0022318463037BD46A1
:103A300080BD000080B584B000AF78607B681B68F3
:103A40001B6923F440517B68DA687B681B680A4372
:103A50001A617B689A687B681B691A437B685B699B
:103A60001343BB607B681B68DB6823F4B05323F00F
:103A70000C037A681268B9680B43D3607B681B68D3
:103A80005B6923F440717B689A697B681B680A4311
:103A90005A617B681B682C4A934203D1FFF74CF9AB
:103AA000F86002E0FFF734F9F860FA6813469B000B
:103AB00013449A001A447B685B689B00B2FBF3F3E3
:103AC000224AA2FB03235B091901FA6813469B00F3
:103AD00013449A001A447B685B689B00B2FBF3F2C4
:103AE0001A4BA3FB02035B09642000FB03F3D31A08
:103AF0001B013233154AA2FB03235B0903F0F003D9
:103B00001944FA6813469B0013449A001A447B68D0
:103B10005B689B00B2FBF3F20C4BA3FB02035B0957
:103B2000642000FB03F3D31A1B013233074AA2FBC4
:103B300003235B0903F00F027B681B680A449A6049
:103B400000BF1037BD4680BD003801401F85EB51D6
:103B50000EB46FF0004100B59CB01DAB0290069012
:103B6000079104910848094953F8042B059100680E
:103B700002A9019300F0A2F90022029B1A701CB066
:103B80005DF804EB03B07047700000200802FFFFEF
:103B900003460244934200D1704703F8011BF9E742
:103BA000024610B5147813460132002CFAD1013BBD
:103BB00011F8012B03F8012F002AF9D110BD0000E4
:103BC000014B1868704700BF7000002070B50026D8
:103BD0000C4D0D4C641BA410A64209D100F078FCDA
:103BE00000260A4D0A4C641BA410A64205D170BDE4
:103BF00055F8043B98470136EEE755F8043B9847E3
:103C00000136F2E76045000860450008604500089D
:103C1000644500087047704738B50546002940D014
:103C200051F8043C0C1F002BB8BFE41800F0DEF87C
:103C30001C4A136833B9636014602846BDE83840F5
:103C400000F0DAB8A34208D9206821188B4201BFDE
:103C500019685B6809182160EDE71A465B680BB1CB
:103C6000A342FAD911685018A0420BD12068014430
:103C7000501883421160E0D118685B6808441060F6
:103C80005360DAE702D90C232B60D6E720682118AD
:103C90008B4201BF19685B6809182160636054603A
:103CA000CBE738BD1803002070B50F4E0C463168C5
:103CB000054611B900F0AAFB30602146284600F005
:103CC000A5FB431C03D14FF0FF34204670BDC41C3C
:103CD00024F00304A042F8D0211A284600F096FBF5
:103CE0000130F2D1EFE700BF140300202DE9F843C3
:103CF000CD1C25F0030508350C2D38BF0C25002DF3
:103D0000064601DBA94204D90C2333600020BDE83C
:103D1000F883DFF8D48000F069F8D8F800301C464A
:103D200044BB29463046FFF7BFFF431C044658D129
:103D3000D8F800402746002F43D1002C4BD02368F1
:103D40003946304604EB030900F060FB814542D15F
:103D5000216830466D1A2946FFF7A6FF01303AD098
:103D600023682B442360D8F800305A6862BBC8F837
:103D700000700FE02268521B20D40B2A17D961195A
:103D8000A342256018BF5960636808BFC8F80010D7
:103D900062514B60304600F02FF804F10B00231DF8
:103DA00020F00700C21A1CBF1B1AA350AFE76268BD
:103DB000A3420CBFC8F800205A60EBE723466468B2
:103DC000AEE73C467F68B6E71A465B68A342FBD184
:103DD00000235360DEE70C233046336000F00CF81C
:103DE00094E70560D6E700BF180300200148FFF7FD
:103DF00011BF00BF100300200148FFF70CBF00BF38
:103E0000100300202DE9F0471F468E688246BE420F
:103E10000C4690460B682DD8B1F90C2012F4906F27
:103E200026D06569096905EB4505A3EB010905EB9A
:103E3000D5757B1C4B446D109D4238BF1D46530504
:103E400027D52946FFF752FF064660B34A46216947
:103E500000F0FAFAA38923F4906343F08003A3816E
:103E600026614E4426603E466561A5EB0905A560C6
:103E7000BE4200D93E4632464146206800F0ACFAC8
:103E80000020A3689B1BA360236833442360BDE824
:103E9000F0872A4600F0E6FA06460028E0D15046B0
:103EA0002169FFF7B9FE0C23CAF80030A3894FF04F
:103EB000FF3043F04003A381E9E700002DE9F04F14
:103EC00098468B8907461B060D4614469DB010D5B3
:103ED0000B6973B94021FFF709FF2860286130B9E9
:103EE0000C233B604FF0FF301DB0BDE8F08F402346
:103EF0006B610023099320238DF8293030234FF084
:103F00000109CDF80C80DFF898818DF82A3023461E
:103F10009A4613F8012B0AB1252AF9D1BAEB040B02
:103F20000BD05B46224629463846FFF76BFF01302F
:103F300000F0A780099A5A4409929AF80030002BA1
:103F400000F09F8000234FF0FF32CDE905230AF1F6
:103F5000010A049307938DF853301A9354460522AF
:103F600014F8011B4E4800F061FA049AD8B9D00643
:103F700044BF20238DF85330110744BF2B238DF805
:103F800053309AF800302A2B15D0544600204FF0B9
:103F90000A0C079A214611F8013B303B092B4BD9FB
:103FA000B0B1079214E0A0EB080309FA03F313433E
:103FB000A2460493D2E7039B191D1B680391002BB3
:103FC000BBBF5B4242F0020207930793B8BF049263
:103FD00023782E2B0AD163782A2B32D1039B02340B
:103FE0001A1D1B68039243EAE3730593DFF8B4A03C
:103FF00003225046217800F019FA38B14022049B80
:10400000A0EB0A00824013430134049314F8011B0F
:10401000062225488DF8281000F008FA002836D02E
:10402000224B1BBB039B073323F007030833039387
:10403000099B334409936AE70C4601200CFB0232CA
:10404000A8E700234FF00A0C1946013405932046D7
:1040500010F8012B303A092A03D9002BC6D005915C
:10406000C4E7044601230CFB0121F0E703AB0093F6
:104070002A4638460E4B04A9AFF30080421C064680
:10408000D6D1AB895B063FF52DAF09982CE703AB82
:1040900000932A463846064B04A900F07DF8EDE768
:1040A00022450008284500082C45000800000000B3
:1040B000053E00082DE9F047164698468A680B69C8
:1040C00007469342B8BF1346336091F843200C462D
:1040D000DDF820900AB1013333602368990642BFAE
:1040E000336802333360256815F0060506D104F104
:1040F000190AE36832689B1AAB422BDC94F8433010
:104100002268003B18BF0123920630D4414638464E
:1041100004F14302C847013023D02368226903F029
:104120000603042B14BF002533684FF0000608BFB8
:10413000E56804F11A0408BFED1A54F8123C08BFF0
:1041400025EAE5759342C4BF9B1AED18B5421AD112
:10415000002008E00123524641463846C847013056
:1041600003D14FF0FF30BDE8F0870135C1E73020C3
:10417000E11881F843005A1C94F845102244023398
:1041800082F84310C2E70123224641463846C84719
:104190000130E6D00136D9E72DE9FF470F7E914681
:1041A000782F80460C469A460C9E01F1430207D8B0
:1041B000622F0AD8002F00F0D380582F00F0BA8069
:1041C00004F1420684F842703AE0A7F16303152B2C
:1041D000F6D801A151F823F0314200084542000809
:1041E000C1410008C1410008C1410008C1410008A7
:1041F00045420008C1410008C1410008C141000812
:10420000C1410008474300086F420008014300080D
:10421000C1410008C141000869430008C1410008CC
:104220006F420008C1410008C1410008094300086D
:1042300033681A1D1B68326004F1420684F842306C
:1042400001239EE033682068191D3160060601D500
:104250001D6803E04506FBD5B3F90050002D03DAD5
:104260002D236D4284F843300A23594811E0216818
:104270003368080653F8045B02D4490648BFADB260
:104280006F2F336014BF0A2308235148002184F89C
:1042900043106668002EA8BF2168A660A4BF21F065
:1042A000040121600DB9002E4BD01646B5FBF3F189
:1042B00003FB1157C75D06F8017D2F46BB420D4633
:1042C000F4D9082B0BD12368DF0708D5236961686F
:1042D0009942DEBF302306F8013C06F1FF36921BFF
:1042E00022614B4621464046CDF800A003AAFFF7C5
:1042F000E1FE01304AD14FF0FF3004B0BDE8F08755
:10430000236843F0200323607827324884F84570FF
:10431000236831681F0651F8045B02D45F0648BF6A
:10432000ADB23160D90744BF43F0200323601DB113
:104330001023ABE72648E9E7236823F02003236036
:10434000F6E71646BDE733682568181D61693060D9
:104350002E061B6801D5196002E06806FBD519809E
:10436000002316462361BCE7336800211A1D326022
:104370001E686268304600F059F808B1801B606022
:1043800063682361002384F84330AAE73246494634
:1043900040462369D0470130ADD023689B0713D432
:1043A000E068039B9842B8BF1846A6E7012332464F
:1043B00049464046D04701309DD00135E368039916
:1043C0005B1AAB42F2DCEBE7002504F11906F5E7D6
:1043D0003345000844450008884210B501EB02044B
:1043E00002D98442234607D8431EA14208D011F8BF
:1043F000012B03F8012FF8E7014602448A4200D15D
:1044000010BD13F8014D02F8014DF7E738B5002350
:10441000054D044608462B60FDF722F9431C02D1E6
:104420002B6803B1236038BD0C030020034610B590
:10443000C9B202449342184601D1002003E0047837
:1044400001338C42F6D110BD0A44914200F1FF3392
:1044500000D1704710B511F8014B914203F8014F9C
:10446000F9D110BD2DE9F041804615460C4621B921
:104470001146BDE8F041FFF739BC2AB9FFF7CCFB84
:1044800000242046BDE8F08100F01AF88542064677
:1044900002D8B5EB500FF4D829464046FFF726FC6A
:1044A00007460028ECD0B5422A46214628BF3246AE
:1044B000FFF7CAFF21464046FFF7AEFB3C46E0E768
:1044C00051F8043C181F002BBCBF0B58C018704794
:1044D000F8B500BFF8BC08BC9E467047F8B500BFF1
:0844E000F8BC08BC9E467047C1
:1044E8004241543030310000256C75002000000036
:1044F800000000000000000001020304060708098C
:10450800000000000102030402030405060708096D
:104518000A0B0C0D0E0F10100102232D302B20005A
:10452800686C4C0065666745464700303132333465
:104538003536373839414243444546003031323305
:1045480034353637383961626364656600000000C7
:08455800F8BBFF7F0100000029
:044560003501000819
:044564001101000839
:1045680042415430303100000000000000000000DB
:104578000000000000000000000000000000000033
:104588000000000000000000000000000000000023
:104598000000000000000000000000000000000013
:1045A8000000000000000000000000000000000003
:1045B80000000000000000000000000000000000F3
:1045C800000000000024F4001000000001000000BA
:1045D8007400002000000000D40100203C020020EC
:1045E800A4020020000000000000000000000000FD
:1045F80000000000000000000000000000000000B3
:1046080000000000000000000000000000000000A2
:104618000000000000000000000000000000000092
:04000005080016D900
:00000001FF
